{
  "contractName": "Poll",
  "abi": [
    {
      "constant": true,
      "inputs": [],
      "name": "endTime",
      "outputs": [
        {
          "name": "",
          "type": "uint256"
        }
      ],
      "payable": false,
      "stateMutability": "view",
      "type": "function"
    },
    {
      "constant": true,
      "inputs": [],
      "name": "startTime",
      "outputs": [
        {
          "name": "",
          "type": "uint256"
        }
      ],
      "payable": false,
      "stateMutability": "view",
      "type": "function"
    },
    {
      "constant": true,
      "inputs": [],
      "name": "pollDataMultihash",
      "outputs": [
        {
          "name": "",
          "type": "bytes"
        }
      ],
      "payable": false,
      "stateMutability": "view",
      "type": "function"
    },
    {
      "constant": true,
      "inputs": [],
      "name": "author",
      "outputs": [
        {
          "name": "",
          "type": "address"
        }
      ],
      "payable": false,
      "stateMutability": "view",
      "type": "function"
    },
    {
      "constant": true,
      "inputs": [],
      "name": "numChoices",
      "outputs": [
        {
          "name": "",
          "type": "uint16"
        }
      ],
      "payable": false,
      "stateMutability": "view",
      "type": "function"
    },
    {
      "constant": true,
      "inputs": [
        {
          "name": "",
          "type": "bytes32"
        }
      ],
      "name": "usedSignatures",
      "outputs": [
        {
          "name": "",
          "type": "bool"
        }
      ],
      "payable": false,
      "stateMutability": "view",
      "type": "function"
    },
    {
      "inputs": [
        {
          "name": "_name",
          "type": "string"
        },
        {
          "name": "_chainId",
          "type": "uint256"
        },
        {
          "name": "_ipfsHash",
          "type": "bytes"
        },
        {
          "name": "_numChoices",
          "type": "uint16"
        },
        {
          "name": "_startTime",
          "type": "uint256"
        },
        {
          "name": "_endTime",
          "type": "uint256"
        },
        {
          "name": "_author",
          "type": "address"
        }
      ],
      "payable": false,
      "stateMutability": "nonpayable",
      "type": "constructor"
    },
    {
      "anonymous": false,
      "inputs": [
        {
          "indexed": true,
          "name": "voter",
          "type": "address"
        },
        {
          "indexed": true,
          "name": "choice",
          "type": "uint16"
        }
      ],
      "name": "VoteCast",
      "type": "event"
    },
    {
      "constant": false,
      "inputs": [
        {
          "name": "_choice",
          "type": "uint16"
        }
      ],
      "name": "vote",
      "outputs": [],
      "payable": false,
      "stateMutability": "nonpayable",
      "type": "function"
    },
    {
      "constant": false,
      "inputs": [
        {
          "name": "_choice",
          "type": "uint16"
        },
        {
          "name": "_voter",
          "type": "address"
        },
        {
          "name": "_nonce",
          "type": "bytes32"
        },
        {
          "name": "_delegationSig",
          "type": "bytes"
        }
      ],
      "name": "voteFor",
      "outputs": [],
      "payable": false,
      "stateMutability": "nonpayable",
      "type": "function"
    }
  ],
  "bytecode": "0x60806040523480156200001157600080fd5b50604051620010b7380380620010b783398101806040528101908080518201929190602001805190602001909291908051820192919060200180519060200190929190805190602001909291908051906020019092919080519060200190929190505050866040805190810160405280600181526020017f320000000000000000000000000000000000000000000000000000000000000081525087620000fe6080604051908101604052808581526020018481526020018381526020013073ffffffffffffffffffffffffffffffffffffffff16815250620001df640100000000026401000000009004565b600181600019169055505050504283101580156200011b57508282115b15156200012757600080fd5b620001418562000429640100000000026401000000009004565b15156200014d57600080fd5b83600360006101000a81548161ffff021916908361ffff160217905550826004819055508160058190555084600290805190602001906200019092919062000459565b5080600660006101000a81548173ffffffffffffffffffffffffffffffffffffffff021916908373ffffffffffffffffffffffffffffffffffffffff1602179055505050505050505062000508565b600060405180807f454950373132446f6d61696e28737472696e67206e616d652c737472696e672081526020017f76657273696f6e2c75696e7432353620636861696e49642c616464726573732081526020017f766572696679696e67436f6e74726163742900000000000000000000000000008152506052019050604051809103902082600001516040518082805190602001908083835b6020831015156200029f578051825260208201915060208101905060208303925062000278565b6001836020036101000a038019825116818451168082178552505050505050905001915050604051809103902083602001516040518082805190602001908083835b602083101515620003085780518252602082019150602081019050602083039250620002e1565b6001836020036101000a038019825116818451168082178552505050505050905001915050604051809103902084604001518560600151604051602001808660001916600019168152602001856000191660001916815260200184600019166000191681526020018381526020018273ffffffffffffffffffffffffffffffffffffffff1673ffffffffffffffffffffffffffffffffffffffff168152602001955050505050506040516020818303038152906040526040518082805190602001908083835b602083101515620003f55780518252602082019150602081019050602083039250620003ce565b6001836020036101000a03801982511681845116808217855250505050505090500191505060405180910390209050919050565b600080600283511115156200043d57600080fd5b602183015160001a90506002810160ff16835114915050919050565b828054600181600116156101000203166002900490600052602060002090601f016020900481019282601f106200049c57805160ff1916838001178555620004cd565b82800160010185558215620004cd579182015b82811115620004cc578251825591602001919060010190620004af565b5b509050620004dc9190620004e0565b5090565b6200050591905b8082111562000501576000816000905550600101620004e7565b5090565b90565b610b9f80620005186000396000f30060806040526004361061008e576000357c0100000000000000000000000000000000000000000000000000000000900463ffffffff1680631066cd3c146100935780633197cbb61461010a57806378e97925146101355780638bb3684814610160578063a6c3e6b9146101f0578063a9092c1114610247578063ddb6e1161461027a578063f978fd61146102ab575b600080fd5b34801561009f57600080fd5b50610108600480360381019080803561ffff169060200190929190803573ffffffffffffffffffffffffffffffffffffffff16906020019092919080356000191690602001909291908035906020019082018035906020019190919293919293905050506102f4565b005b34801561011657600080fd5b5061011f610343565b6040518082815260200191505060405180910390f35b34801561014157600080fd5b5061014a610349565b6040518082815260200191505060405180910390f35b34801561016c57600080fd5b5061017561034f565b6040518080602001828103825283818151815260200191508051906020019080838360005b838110156101b557808201518184015260208101905061019a565b50505050905090810190601f1680156101e25780820380516001836020036101000a031916815260200191505b509250505060405180910390f35b3480156101fc57600080fd5b506102056103ed565b604051808273ffffffffffffffffffffffffffffffffffffffff1673ffffffffffffffffffffffffffffffffffffffff16815260200191505060405180910390f35b34801561025357600080fd5b5061025c610413565b604051808261ffff1661ffff16815260200191505060405180910390f35b34801561028657600080fd5b506102a9600480360381019080803561ffff169060200190929190505050610427565b005b3480156102b757600080fd5b506102da6004803603810190808035600019169060200190929190505050610434565b604051808215151515815260200191505060405180910390f35b61033285858585858080601f016020809104026020016040519081016040528093929190818152602001838380828437820191505050505050610454565b61033c8585610521565b5050505050565b60055481565b60045481565b60028054600181600116156101000203166002900480601f0160208091040260200160405190810160405280929190818152602001828054600181600116156101000203166002900480156103e55780601f106103ba576101008083540402835291602001916103e5565b820191906000526020600020905b8154815290600101906020018083116103c857829003601f168201915b505050505081565b600660009054906101000a900473ffffffffffffffffffffffffffffffffffffffff1681565b600360009054906101000a900461ffff1681565b6104318133610521565b50565b60006020528060005260406000206000915054906101000a900460ff1681565b6000610462858585306105c3565b905061046e81836106f0565b73ffffffffffffffffffffffffffffffffffffffff168473ffffffffffffffffffffffffffffffffffffffff16141515610510576040517f08c379a000000000000000000000000000000000000000000000000000000000815260040180806020018281038252600e8152602001807f496e76616c6964207369676e657200000000000000000000000000000000000081525060200191505060405180910390fd5b61051a8185610856565b5050505050565b600454421015801561053557506005544211155b151561054057600080fd5b600360009054906101000a900461ffff1661ffff168261ffff161115801561056c575060008261ffff16115b151561057757600080fd5b8161ffff168173ffffffffffffffffffffffffffffffffffffffff167f2fed3c9ea3d003e94f3c55c5c6ae89aaaee93e8f058f0565d089c3b32b5b328660405160405180910390a35050565b60006001546106266080604051908101604052808861ffff1681526020018773ffffffffffffffffffffffffffffffffffffffff168152602001866000191681526020018573ffffffffffffffffffffffffffffffffffffffff168152506109ed565b60405160200180807f190100000000000000000000000000000000000000000000000000000000000081525060020183600019166000191681526020018260001916600019168152602001925050506040516020818303038152906040526040518082805190602001908083835b6020831015156106b95780518252602082019150602081019050602083039250610694565b6001836020036101000a03801982511681845116808217855250505050505090500191505060405180910390209050949350505050565b60008073__ECRecovery____________________________6319045a2585856040518363ffffffff167c010000000000000000000000000000000000000000000000000000000002815260040180836000191660001916815260200180602001828103825283818151815260200191508051906020019080838360005b8381101561078857808201518184015260208101905061076d565b50505050905090810190601f1680156107b55780820380516001836020036101000a031916815260200191505b50935050505060206040518083038186803b1580156107d357600080fd5b505af41580156107e7573d6000803e3d6000fd5b505050506040513d60208110156107fd57600080fd5b81019080805190602001909291905050509050600073ffffffffffffffffffffffffffffffffffffffff168173ffffffffffffffffffffffffffffffffffffffff161415151561084c57600080fd5b8091505092915050565b600082826040516020018083600019166000191681526020018273ffffffffffffffffffffffffffffffffffffffff1673ffffffffffffffffffffffffffffffffffffffff168152602001925050506040516020818303038152906040526040518082805190602001908083835b6020831015156108e957805182526020820191506020810190506020830392506108c4565b6001836020036101000a03801982511681845116808217855250505050505090500191505060405180910390209050600080826000191660001916815260200190815260200160002060009054906101000a900460ff161515156109b5576040517f08c379a00000000000000000000000000000000000000000000000000000000081526004018080602001828103825260148152602001807f5369676e6174757265206e6f7420756e6971756500000000000000000000000081525060200191505060405180910390fd5b6001600080836000191660001916815260200190815260200160002060006101000a81548160ff021916908315150217905550505050565b600060405180807f566f7465466f722875696e7431362063686f6963652c6164647265737320766f81526020017f7465722c62797465733332206e6f6e63652c6164647265737320706f6c6c2900815250603f019050604051809103902082600001518360200151846040015185606001516040516020018086600019166000191681526020018561ffff1661ffff1681526020018473ffffffffffffffffffffffffffffffffffffffff1673ffffffffffffffffffffffffffffffffffffffff16815260200183600019166000191681526020018273ffffffffffffffffffffffffffffffffffffffff1673ffffffffffffffffffffffffffffffffffffffff168152602001955050505050506040516020818303038152906040526040518082805190602001908083835b602083101515610b3f5780518252602082019150602081019050602083039250610b1a565b6001836020036101000a038019825116818451168082178552505050505050905001915050604051809103902090509190505600a165627a7a723058206ed51bfac559822bbc7a57969decf80f0f51834552549873150d4478476a7fe40029",
  "source": "pragma solidity 0.4.24;\n\nimport \"./VotingCenter.sol\";\nimport \"./DependentOnIPFS.sol\";\nimport \"./SigningLogic.sol\";\n\n/**\n * @title Voteable poll with associated IPFS data\n *\n * A poll records votes on a variable number of choices. A poll specifies\n * a window during which users can vote. Information like the poll title and\n * the descriptions for each option are stored on IPFS.\n */\ncontract Poll is DependentOnIPFS, SigningLogic {\n  // There isn't a way around using time to determine when votes can be cast\n  // solhint-disable not-rely-on-time\n\n  bytes public pollDataMultihash;\n  uint16 public numChoices;\n  uint256 public startTime;\n  uint256 public endTime;\n  address public author;\n\n  event VoteCast(address indexed voter, uint16 indexed choice);\n\n  constructor(\n    string _name,\n    uint256 _chainId,\n    bytes _ipfsHash,\n    uint16 _numChoices,\n    uint256 _startTime,\n    uint256 _endTime,\n    address _author\n  ) public SigningLogic(_name, \"2\", _chainId) {\n    require(_startTime >= now && _endTime > _startTime);\n    require(isValidIPFSMultihash(_ipfsHash));\n\n    numChoices = _numChoices;\n    startTime = _startTime;\n    endTime = _endTime;\n    pollDataMultihash = _ipfsHash;\n    author = _author;\n  }\n\n  function vote(uint16 _choice) external {\n    voteForUser(_choice, msg.sender);\n  }\n\n  function voteFor(uint16 _choice, address _voter, bytes32 _nonce, bytes _delegationSig) external {\n    validateVoteForSig(_choice, _voter, _nonce, _delegationSig);\n    voteForUser(_choice, _voter);\n  }\n\n  function validateVoteForSig(\n    uint16 _choice,\n    address _voter,\n    bytes32 _nonce,\n    bytes _delegationSig\n  ) private {\n    bytes32 _signatureDigest = generateVoteForDelegationSchemaHash(_choice, _voter, _nonce, this);\n    require(_voter == recoverSigner(_signatureDigest, _delegationSig),\n      \"Invalid signer\"\n      );\n    burnSignatureDigest(_signatureDigest, _voter);\n  }\n\n  /**\n   * @dev Cast or change your vote\n   * @param _choice The index of the option in the corresponding IPFS document.\n   */\n  function voteForUser(uint16 _choice, address _voter) private duringPoll {\n    // Choices are indexed from 1 since the mapping returns 0 for \"no vote cast\"\n    require(_choice <= numChoices && _choice > 0);\n    emit VoteCast(_voter, _choice);\n  }\n\n  modifier duringPoll {\n    require(now >= startTime && now <= endTime);\n    _;\n  }\n\n}\n",
  "sourcePath": "/Users/isaacpatka/Bloom/bloom-web/contracts/Poll.sol",
  "compiler": {
    "name": "solc",
    "version": "0.4.24+commit.e67f0147.Emscripten.clang"
  },
  "schemaVersion": "2.0.1",
  "updatedAt": "2018-11-29T01:35:24.666Z"
}