{
  "contractName": "VotingCenter",
  "abi": [
    {
      "constant": true,
      "inputs": [
        {
          "name": "",
          "type": "uint256"
        }
      ],
      "name": "polls",
      "outputs": [
        {
          "name": "",
          "type": "address"
        }
      ],
      "payable": false,
      "stateMutability": "view",
      "type": "function"
    },
    {
      "anonymous": false,
      "inputs": [
        {
          "indexed": true,
          "name": "poll",
          "type": "address"
        },
        {
          "indexed": true,
          "name": "author",
          "type": "address"
        }
      ],
      "name": "PollCreated",
      "type": "event"
    },
    {
      "constant": false,
      "inputs": [
        {
          "name": "_name",
          "type": "string"
        },
        {
          "name": "_chainId",
          "type": "uint256"
        },
        {
          "name": "_ipfsHash",
          "type": "bytes"
        },
        {
          "name": "_numOptions",
          "type": "uint16"
        },
        {
          "name": "_startTime",
          "type": "uint256"
        },
        {
          "name": "_endTime",
          "type": "uint256"
        }
      ],
      "name": "createPoll",
      "outputs": [
        {
          "name": "",
          "type": "address"
        }
      ],
      "payable": false,
      "stateMutability": "nonpayable",
      "type": "function"
    },
    {
      "constant": true,
      "inputs": [],
      "name": "allPolls",
      "outputs": [
        {
          "name": "",
          "type": "address[]"
        }
      ],
      "payable": false,
      "stateMutability": "view",
      "type": "function"
    },
    {
      "constant": true,
      "inputs": [],
      "name": "numPolls",
      "outputs": [
        {
          "name": "",
          "type": "uint256"
        }
      ],
      "payable": false,
      "stateMutability": "view",
      "type": "function"
    }
  ],
  "bytecode": "0x608060405234801561001057600080fd5b50611592806100206000396000f300608060405260043610610062576000357c0100000000000000000000000000000000000000000000000000000000900463ffffffff168063842ff2bd14610067578063ac2f007414610092578063be82fffe146100ff578063fe201c171461016b575b600080fd5b34801561007357600080fd5b5061007c61022a565b6040518082815260200191505060405180910390f35b34801561009e57600080fd5b506100bd60048036038101908080359060200190929190505050610236565b604051808273ffffffffffffffffffffffffffffffffffffffff1673ffffffffffffffffffffffffffffffffffffffff16815260200191505060405180910390f35b34801561010b57600080fd5b50610114610274565b6040518080602001828103825283818151815260200191508051906020019060200280838360005b8381101561015757808201518184015260208101905061013c565b505050509050019250505060405180910390f35b34801561017757600080fd5b506101e860048036038101908080359060200190820180359060200191909192939192939080359060200190929190803590602001908201803590602001919091929391929390803561ffff1690602001909291908035906020019092919080359060200190929190505050610302565b604051808273ffffffffffffffffffffffffffffffffffffffff1673ffffffffffffffffffffffffffffffffffffffff16815260200191505060405180910390f35b60008080549050905090565b60008181548110151561024557fe5b906000526020600020016000915054906101000a900473ffffffffffffffffffffffffffffffffffffffff1681565b606060008054806020026020016040519081016040528092919081815260200182805480156102f857602002820191906000526020600020905b8160009054906101000a900473ffffffffffffffffffffffffffffffffffffffff1673ffffffffffffffffffffffffffffffffffffffff16815260200190600101908083116102ae575b5050505050905090565b60008089898989898989893361031661049f565b8080602001898152602001806020018761ffff1661ffff1681526020018681526020018581526020018473ffffffffffffffffffffffffffffffffffffffff1673ffffffffffffffffffffffffffffffffffffffff16815260200183810383528c8c828181526020019250808284378201915050838103825289898281815260200192508082843782019150509b505050505050505050505050604051809103906000f0801580156103cc573d6000803e3d6000fd5b50905060008190806001815401808255809150509060018203906000526020600020016000909192909190916101000a81548173ffffffffffffffffffffffffffffffffffffffff021916908373ffffffffffffffffffffffffffffffffffffffff160217905550503373ffffffffffffffffffffffffffffffffffffffff168173ffffffffffffffffffffffffffffffffffffffff167f5b850d927499bc55df3941f7c4ae97ab6fce34a21f4df0ab30694f24353445b260405160405180910390a38091505098975050505050505050565b6040516110b7806104b083390190560060806040523480156200001157600080fd5b50604051620010b7380380620010b783398101806040528101908080518201929190602001805190602001909291908051820192919060200180519060200190929190805190602001909291908051906020019092919080519060200190929190505050866040805190810160405280600181526020017f320000000000000000000000000000000000000000000000000000000000000081525087620000fe6080604051908101604052808581526020018481526020018381526020013073ffffffffffffffffffffffffffffffffffffffff16815250620001df640100000000026401000000009004565b600181600019169055505050504283101580156200011b57508282115b15156200012757600080fd5b620001418562000429640100000000026401000000009004565b15156200014d57600080fd5b83600360006101000a81548161ffff021916908361ffff160217905550826004819055508160058190555084600290805190602001906200019092919062000459565b5080600660006101000a81548173ffffffffffffffffffffffffffffffffffffffff021916908373ffffffffffffffffffffffffffffffffffffffff1602179055505050505050505062000508565b600060405180807f454950373132446f6d61696e28737472696e67206e616d652c737472696e672081526020017f76657273696f6e2c75696e7432353620636861696e49642c616464726573732081526020017f766572696679696e67436f6e74726163742900000000000000000000000000008152506052019050604051809103902082600001516040518082805190602001908083835b6020831015156200029f578051825260208201915060208101905060208303925062000278565b6001836020036101000a038019825116818451168082178552505050505050905001915050604051809103902083602001516040518082805190602001908083835b602083101515620003085780518252602082019150602081019050602083039250620002e1565b6001836020036101000a038019825116818451168082178552505050505050905001915050604051809103902084604001518560600151604051602001808660001916600019168152602001856000191660001916815260200184600019166000191681526020018381526020018273ffffffffffffffffffffffffffffffffffffffff1673ffffffffffffffffffffffffffffffffffffffff168152602001955050505050506040516020818303038152906040526040518082805190602001908083835b602083101515620003f55780518252602082019150602081019050602083039250620003ce565b6001836020036101000a03801982511681845116808217855250505050505090500191505060405180910390209050919050565b600080600283511115156200043d57600080fd5b602183015160001a90506002810160ff16835114915050919050565b828054600181600116156101000203166002900490600052602060002090601f016020900481019282601f106200049c57805160ff1916838001178555620004cd565b82800160010185558215620004cd579182015b82811115620004cc578251825591602001919060010190620004af565b5b509050620004dc9190620004e0565b5090565b6200050591905b8082111562000501576000816000905550600101620004e7565b5090565b90565b610b9f80620005186000396000f30060806040526004361061008e576000357c0100000000000000000000000000000000000000000000000000000000900463ffffffff1680631066cd3c146100935780633197cbb61461010a57806378e97925146101355780638bb3684814610160578063a6c3e6b9146101f0578063a9092c1114610247578063ddb6e1161461027a578063f978fd61146102ab575b600080fd5b34801561009f57600080fd5b50610108600480360381019080803561ffff169060200190929190803573ffffffffffffffffffffffffffffffffffffffff16906020019092919080356000191690602001909291908035906020019082018035906020019190919293919293905050506102f4565b005b34801561011657600080fd5b5061011f610343565b6040518082815260200191505060405180910390f35b34801561014157600080fd5b5061014a610349565b6040518082815260200191505060405180910390f35b34801561016c57600080fd5b5061017561034f565b6040518080602001828103825283818151815260200191508051906020019080838360005b838110156101b557808201518184015260208101905061019a565b50505050905090810190601f1680156101e25780820380516001836020036101000a031916815260200191505b509250505060405180910390f35b3480156101fc57600080fd5b506102056103ed565b604051808273ffffffffffffffffffffffffffffffffffffffff1673ffffffffffffffffffffffffffffffffffffffff16815260200191505060405180910390f35b34801561025357600080fd5b5061025c610413565b604051808261ffff1661ffff16815260200191505060405180910390f35b34801561028657600080fd5b506102a9600480360381019080803561ffff169060200190929190505050610427565b005b3480156102b757600080fd5b506102da6004803603810190808035600019169060200190929190505050610434565b604051808215151515815260200191505060405180910390f35b61033285858585858080601f016020809104026020016040519081016040528093929190818152602001838380828437820191505050505050610454565b61033c8585610521565b5050505050565b60055481565b60045481565b60028054600181600116156101000203166002900480601f0160208091040260200160405190810160405280929190818152602001828054600181600116156101000203166002900480156103e55780601f106103ba576101008083540402835291602001916103e5565b820191906000526020600020905b8154815290600101906020018083116103c857829003601f168201915b505050505081565b600660009054906101000a900473ffffffffffffffffffffffffffffffffffffffff1681565b600360009054906101000a900461ffff1681565b6104318133610521565b50565b60006020528060005260406000206000915054906101000a900460ff1681565b6000610462858585306105c3565b905061046e81836106f0565b73ffffffffffffffffffffffffffffffffffffffff168473ffffffffffffffffffffffffffffffffffffffff16141515610510576040517f08c379a000000000000000000000000000000000000000000000000000000000815260040180806020018281038252600e8152602001807f496e76616c6964207369676e657200000000000000000000000000000000000081525060200191505060405180910390fd5b61051a8185610856565b5050505050565b600454421015801561053557506005544211155b151561054057600080fd5b600360009054906101000a900461ffff1661ffff168261ffff161115801561056c575060008261ffff16115b151561057757600080fd5b8161ffff168173ffffffffffffffffffffffffffffffffffffffff167f2fed3c9ea3d003e94f3c55c5c6ae89aaaee93e8f058f0565d089c3b32b5b328660405160405180910390a35050565b60006001546106266080604051908101604052808861ffff1681526020018773ffffffffffffffffffffffffffffffffffffffff168152602001866000191681526020018573ffffffffffffffffffffffffffffffffffffffff168152506109ed565b60405160200180807f190100000000000000000000000000000000000000000000000000000000000081525060020183600019166000191681526020018260001916600019168152602001925050506040516020818303038152906040526040518082805190602001908083835b6020831015156106b95780518252602082019150602081019050602083039250610694565b6001836020036101000a03801982511681845116808217855250505050505090500191505060405180910390209050949350505050565b60008073__ECRecovery____________________________6319045a2585856040518363ffffffff167c010000000000000000000000000000000000000000000000000000000002815260040180836000191660001916815260200180602001828103825283818151815260200191508051906020019080838360005b8381101561078857808201518184015260208101905061076d565b50505050905090810190601f1680156107b55780820380516001836020036101000a031916815260200191505b50935050505060206040518083038186803b1580156107d357600080fd5b505af41580156107e7573d6000803e3d6000fd5b505050506040513d60208110156107fd57600080fd5b81019080805190602001909291905050509050600073ffffffffffffffffffffffffffffffffffffffff168173ffffffffffffffffffffffffffffffffffffffff161415151561084c57600080fd5b8091505092915050565b600082826040516020018083600019166000191681526020018273ffffffffffffffffffffffffffffffffffffffff1673ffffffffffffffffffffffffffffffffffffffff168152602001925050506040516020818303038152906040526040518082805190602001908083835b6020831015156108e957805182526020820191506020810190506020830392506108c4565b6001836020036101000a03801982511681845116808217855250505050505090500191505060405180910390209050600080826000191660001916815260200190815260200160002060009054906101000a900460ff161515156109b5576040517f08c379a00000000000000000000000000000000000000000000000000000000081526004018080602001828103825260148152602001807f5369676e6174757265206e6f7420756e6971756500000000000000000000000081525060200191505060405180910390fd5b6001600080836000191660001916815260200190815260200160002060006101000a81548160ff021916908315150217905550505050565b600060405180807f566f7465466f722875696e7431362063686f6963652c6164647265737320766f81526020017f7465722c62797465733332206e6f6e63652c6164647265737320706f6c6c2900815250603f019050604051809103902082600001518360200151846040015185606001516040516020018086600019166000191681526020018561ffff1661ffff1681526020018473ffffffffffffffffffffffffffffffffffffffff1673ffffffffffffffffffffffffffffffffffffffff16815260200183600019166000191681526020018273ffffffffffffffffffffffffffffffffffffffff1673ffffffffffffffffffffffffffffffffffffffff168152602001955050505050506040516020818303038152906040526040518082805190602001908083835b602083101515610b3f5780518252602082019150602081019050602083039250610b1a565b6001836020036101000a038019825116818451168082178552505050505050905001915050604051809103902090509190505600a165627a7a723058206ed51bfac559822bbc7a57969decf80f0f51834552549873150d4478476a7fe40029a165627a7a723058208b1adcbe8b6321a6e17b3b802842ca4ec5ce6227035639e8c6adafd5b0f2826e0029",
  "source": "pragma solidity 0.4.24;\n\nimport \"./Poll.sol\";\n\n/*\n * @title Bloom voting center\n * @dev The voting center is the home of all polls conducted within the Bloom network.\n *   Anyone can create a new poll and there is no \"owner\" of the network. The Bloom dApp\n *   assumes that all polls are in the `polls` field so any Bloom poll should be created\n *   through the `createPoll` function.\n */\ncontract VotingCenter {\n  Poll[] public polls;\n\n  event PollCreated(address indexed poll, address indexed author);\n\n  /**\n   * @dev create a poll and store the address of the poll in this contract\n   * @param _ipfsHash Multihash for IPFS file containing poll information\n   * @param _numOptions Number of choices in this poll\n   * @param _startTime Time after which a user can cast a vote in the poll\n   * @param _endTime Time after which the poll no longer accepts new votes\n   * @return The address of the new Poll\n   */\n  function createPoll(\n    string _name,\n    uint256 _chainId,\n    bytes _ipfsHash,\n    uint16 _numOptions,\n    uint256 _startTime,\n    uint256 _endTime\n  ) external returns (address) {\n    Poll newPoll = new Poll(\n      _name,\n      _chainId,\n      _ipfsHash,\n      _numOptions,\n      _startTime,\n      _endTime,\n      msg.sender\n      );\n    polls.push(newPoll);\n\n    emit PollCreated(newPoll, msg.sender);\n\n    return newPoll;\n  }\n\n  function allPolls() external view returns (Poll[]) {\n    return polls;\n  }\n\n  function numPolls() external view returns (uint256) {\n    return polls.length;\n  }\n}\n",
  "sourcePath": "/Users/isaacpatka/Bloom/bloom-web/contracts/VotingCenter.sol",
  "compiler": {
    "name": "solc",
    "version": "0.4.24+commit.e67f0147.Emscripten.clang"
  },
  "schemaVersion": "2.0.1",
  "updatedAt": "2018-11-29T01:35:24.671Z"
}